{
	"EscrowContract/contracts/Project.sol": {
		"Project": {
			"abi": [
				{
					"inputs": [],
					"name": "reset",
					"outputs": [],
					"stateMutability": "nonpayable",
					"type": "function"
				},
				{
					"inputs": [],
					"name": "retrieve",
					"outputs": [
						{
							"internalType": "uint256",
							"name": "",
							"type": "uint256"
						}
					],
					"stateMutability": "view",
					"type": "function"
				},
				{
					"inputs": [],
					"name": "store",
					"outputs": [],
					"stateMutability": "nonpayable",
					"type": "function"
				}
			],
			"devdoc": {
				"kind": "dev",
				"methods": {},
				"version": 1
			},
			"evm": {
				"assembly": "    /* \"EscrowContract/contracts/Project.sol\":60:474  contract Project {... */\n  mstore(0x40, 0x80)\n  callvalue\n  dup1\n  iszero\n  tag_1\n  jumpi\n  revert(0x00, 0x00)\ntag_1:\n  pop\n  dataSize(sub_0)\n  dup1\n  dataOffset(sub_0)\n  0x00\n  codecopy\n  0x00\n  return\nstop\n\nsub_0: assembly {\n        /* \"EscrowContract/contracts/Project.sol\":60:474  contract Project {... */\n      mstore(0x40, 0x80)\n      callvalue\n      dup1\n      iszero\n      tag_1\n      jumpi\n      revert(0x00, 0x00)\n    tag_1:\n      pop\n      jumpi(tag_2, lt(calldatasize, 0x04))\n      shr(0xe0, calldataload(0x00))\n      dup1\n      0x2e64cec1\n      eq\n      tag_3\n      jumpi\n      dup1\n      0x975057e7\n      eq\n      tag_4\n      jumpi\n      dup1\n      0xd826f88f\n      eq\n      tag_5\n      jumpi\n    tag_2:\n      revert(0x00, 0x00)\n        /* \"EscrowContract/contracts/Project.sol\":276:364  function retrieve() public view returns (uint256) {... */\n    tag_3:\n      tag_6\n      tag_7\n      jump\t// in\n    tag_6:\n      mload(0x40)\n      tag_8\n      swap2\n      swap1\n      tag_9\n      jump\t// in\n    tag_8:\n      mload(0x40)\n      dup1\n      swap2\n      sub\n      swap1\n      return\n        /* \"EscrowContract/contracts/Project.sol\":173:233  function store() public {... */\n    tag_4:\n      tag_10\n      tag_11\n      jump\t// in\n    tag_10:\n      stop\n        /* \"EscrowContract/contracts/Project.sol\":412:471  function reset() public {... */\n    tag_5:\n      tag_12\n      tag_13\n      jump\t// in\n    tag_12:\n      stop\n        /* \"EscrowContract/contracts/Project.sol\":276:364  function retrieve() public view returns (uint256) {... */\n    tag_7:\n        /* \"EscrowContract/contracts/Project.sol\":317:324  uint256 */\n      0x00\n        /* \"EscrowContract/contracts/Project.sol\":344:356  storedNumber */\n      sload(0x00)\n        /* \"EscrowContract/contracts/Project.sol\":337:356  return storedNumber */\n      swap1\n      pop\n        /* \"EscrowContract/contracts/Project.sol\":276:364  function retrieve() public view returns (uint256) {... */\n      swap1\n      jump\t// out\n        /* \"EscrowContract/contracts/Project.sol\":173:233  function store() public {... */\n    tag_11:\n        /* \"EscrowContract/contracts/Project.sol\":223:225  42 */\n      0x2a\n        /* \"EscrowContract/contracts/Project.sol\":208:220  storedNumber */\n      0x00\n        /* \"EscrowContract/contracts/Project.sol\":208:225  storedNumber = 42 */\n      dup2\n      swap1\n      sstore\n      pop\n        /* \"EscrowContract/contracts/Project.sol\":173:233  function store() public {... */\n      jump\t// out\n        /* \"EscrowContract/contracts/Project.sol\":412:471  function reset() public {... */\n    tag_13:\n        /* \"EscrowContract/contracts/Project.sol\":462:463  0 */\n      0x00\n        /* \"EscrowContract/contracts/Project.sol\":447:459  storedNumber */\n      0x00\n        /* \"EscrowContract/contracts/Project.sol\":447:463  storedNumber = 0 */\n      dup2\n      swap1\n      sstore\n      pop\n        /* \"EscrowContract/contracts/Project.sol\":412:471  function reset() public {... */\n      jump\t// out\n        /* \"#utility.yul\":7:84   */\n    tag_17:\n        /* \"#utility.yul\":44:51   */\n      0x00\n        /* \"#utility.yul\":73:78   */\n      dup2\n        /* \"#utility.yul\":62:78   */\n      swap1\n      pop\n        /* \"#utility.yul\":7:84   */\n      swap2\n      swap1\n      pop\n      jump\t// out\n        /* \"#utility.yul\":90:208   */\n    tag_18:\n        /* \"#utility.yul\":177:201   */\n      tag_22\n        /* \"#utility.yul\":195:200   */\n      dup2\n        /* \"#utility.yul\":177:201   */\n      tag_17\n      jump\t// in\n    tag_22:\n        /* \"#utility.yul\":172:175   */\n      dup3\n        /* \"#utility.yul\":165:202   */\n      mstore\n        /* \"#utility.yul\":90:208   */\n      pop\n      pop\n      jump\t// out\n        /* \"#utility.yul\":214:436   */\n    tag_9:\n        /* \"#utility.yul\":307:311   */\n      0x00\n        /* \"#utility.yul\":345:347   */\n      0x20\n        /* \"#utility.yul\":334:343   */\n      dup3\n        /* \"#utility.yul\":330:348   */\n      add\n        /* \"#utility.yul\":322:348   */\n      swap1\n      pop\n        /* \"#utility.yul\":358:429   */\n      tag_24\n        /* \"#utility.yul\":426:427   */\n      0x00\n        /* \"#utility.yul\":415:424   */\n      dup4\n        /* \"#utility.yul\":411:428   */\n      add\n        /* \"#utility.yul\":402:408   */\n      dup5\n        /* \"#utility.yul\":358:429   */\n      tag_18\n      jump\t// in\n    tag_24:\n        /* \"#utility.yul\":214:436   */\n      swap3\n      swap2\n      pop\n      pop\n      jump\t// out\n\n    auxdata: 0xa26469706673582212209f7e523b8b3ba0fb1d137bcf616f2a2ef1f1c7eb61cb42a98f363c4c12673e4264736f6c634300081e0033\n}\n",
				"bytecode": {
					"linkReferences": {},
					"object": "6080604052348015600e575f5ffd5b5060e48061001b5f395ff3fe6080604052348015600e575f5ffd5b5060043610603a575f3560e01c80632e64cec114603e578063975057e7146058578063d826f88f146060575b5f5ffd5b60446068565b604051604f91906097565b60405180910390f35b605e6070565b005b60666079565b005b5f5f54905090565b602a5f81905550565b5f5f81905550565b5f819050919050565b6091816081565b82525050565b5f60208201905060a85f830184608a565b9291505056fea26469706673582212209f7e523b8b3ba0fb1d137bcf616f2a2ef1f1c7eb61cb42a98f363c4c12673e4264736f6c634300081e0033",
					"opcodes": "PUSH1 0x80 PUSH1 0x40 MSTORE CALLVALUE DUP1 ISZERO PUSH1 0xE JUMPI PUSH0 PUSH0 REVERT JUMPDEST POP PUSH1 0xE4 DUP1 PUSH2 0x1B PUSH0 CODECOPY PUSH0 RETURN INVALID PUSH1 0x80 PUSH1 0x40 MSTORE CALLVALUE DUP1 ISZERO PUSH1 0xE JUMPI PUSH0 PUSH0 REVERT JUMPDEST POP PUSH1 0x4 CALLDATASIZE LT PUSH1 0x3A JUMPI PUSH0 CALLDATALOAD PUSH1 0xE0 SHR DUP1 PUSH4 0x2E64CEC1 EQ PUSH1 0x3E JUMPI DUP1 PUSH4 0x975057E7 EQ PUSH1 0x58 JUMPI DUP1 PUSH4 0xD826F88F EQ PUSH1 0x60 JUMPI JUMPDEST PUSH0 PUSH0 REVERT JUMPDEST PUSH1 0x44 PUSH1 0x68 JUMP JUMPDEST PUSH1 0x40 MLOAD PUSH1 0x4F SWAP2 SWAP1 PUSH1 0x97 JUMP JUMPDEST PUSH1 0x40 MLOAD DUP1 SWAP2 SUB SWAP1 RETURN JUMPDEST PUSH1 0x5E PUSH1 0x70 JUMP JUMPDEST STOP JUMPDEST PUSH1 0x66 PUSH1 0x79 JUMP JUMPDEST STOP JUMPDEST PUSH0 PUSH0 SLOAD SWAP1 POP SWAP1 JUMP JUMPDEST PUSH1 0x2A PUSH0 DUP2 SWAP1 SSTORE POP JUMP JUMPDEST PUSH0 PUSH0 DUP2 SWAP1 SSTORE POP JUMP JUMPDEST PUSH0 DUP2 SWAP1 POP SWAP2 SWAP1 POP JUMP JUMPDEST PUSH1 0x91 DUP2 PUSH1 0x81 JUMP JUMPDEST DUP3 MSTORE POP POP JUMP JUMPDEST PUSH0 PUSH1 0x20 DUP3 ADD SWAP1 POP PUSH1 0xA8 PUSH0 DUP4 ADD DUP5 PUSH1 0x8A JUMP JUMPDEST SWAP3 SWAP2 POP POP JUMP INVALID LOG2 PUSH5 0x6970667358 0x22 SLT KECCAK256 SWAP16 PUSH31 0x523B8B3BA0FB1D137BCF616F2A2EF1F1C7EB61CB42A98F363C4C12673E4264 PUSH20 0x6F6C634300081E00330000000000000000000000 "
				},
				"gasEstimates": {
					"creation": {
						"codeDepositCost": "45600",
						"executionCost": "97",
						"totalCost": "45697"
					},
					"external": {
						"reset()": "5177",
						"retrieve()": "2409",
						"store()": "22256"
					}
				},
				"methodIdentifiers": {
					"reset()": "d826f88f",
					"retrieve()": "2e64cec1",
					"store()": "975057e7"
				}
			},
			"storageLayout": {
				"storage": [
					{
						"astId": 3,
						"contract": "EscrowContract/contracts/Project.sol:Project",
						"label": "storedNumber",
						"offset": 0,
						"slot": "0",
						"type": "t_uint256"
					}
				],
				"types": {
					"t_uint256": {
						"encoding": "inplace",
						"label": "uint256",
						"numberOfBytes": "32"
					}
				}
			},
			"userdoc": {
				"kind": "user",
				"methods": {},
				"version": 1
			}
		}
	}
}